{
  "_format": "hh-sol-artifact-1",
  "contractName": "MultiCallAddress",
  "sourceName": "contracts/multiCallAddress.sol",
  "abi": [
    {
      "inputs": [],
      "stateMutability": "nonpayable",
      "type": "constructor"
    },
    {
      "inputs": [],
      "name": "admin",
      "outputs": [
        {
          "internalType": "address",
          "name": "",
          "type": "address"
        }
      ],
      "stateMutability": "view",
      "type": "function"
    },
    {
      "inputs": [
        {
          "internalType": "address[]",
          "name": "addresses",
          "type": "address[]"
        }
      ],
      "name": "multiCallAddressToAmount",
      "outputs": [],
      "stateMutability": "payable",
      "type": "function"
    }
  ],
  "bytecode": "0x6080604052348015600f57600080fd5b50336000806101000a81548173ffffffffffffffffffffffffffffffffffffffff021916908373ffffffffffffffffffffffffffffffffffffffff1602179055506107328061005f6000396000f3fe6080604052600436106100295760003560e01c80632d9623111461002e578063f851a4401461004a575b600080fd5b61004860048036038101906100439190610444565b610075565b005b34801561005657600080fd5b5061005f610255565b60405161006c919061049c565b60405180910390f35b600081513461008491906104f0565b905060008251346100959190610521565b905060005b83518110156101775760008482815181106100b8576100b7610552565b5b602002602001015173ffffffffffffffffffffffffffffffffffffffff16846040516100e3906105b2565b60006040518083038185875af1925050503d8060008114610120576040519150601f19603f3d011682016040523d82523d6000602084013e610125565b606091505b5050905080610169576040517f08c379a00000000000000000000000000000000000000000000000000000000081526004016101609061064a565b60405180910390fd5b50808060010191505061009a565b5060008111156102505760008060009054906101000a900473ffffffffffffffffffffffffffffffffffffffff1673ffffffffffffffffffffffffffffffffffffffff16826040516101c8906105b2565b60006040518083038185875af1925050503d8060008114610205576040519150601f19603f3d011682016040523d82523d6000602084013e61020a565b606091505b505090508061024e576040517f08c379a0000000000000000000000000000000000000000000000000000000008152600401610245906106dc565b60405180910390fd5b505b505050565b60008054906101000a900473ffffffffffffffffffffffffffffffffffffffff1681565b6000604051905090565b600080fd5b600080fd5b600080fd5b6000601f19601f8301169050919050565b7f4e487b7100000000000000000000000000000000000000000000000000000000600052604160045260246000fd5b6102db82610292565b810181811067ffffffffffffffff821117156102fa576102f96102a3565b5b80604052505050565b600061030d610279565b905061031982826102d2565b919050565b600067ffffffffffffffff821115610339576103386102a3565b5b602082029050602081019050919050565b600080fd5b600073ffffffffffffffffffffffffffffffffffffffff82169050919050565b600061037a8261034f565b9050919050565b61038a8161036f565b811461039557600080fd5b50565b6000813590506103a781610381565b92915050565b60006103c06103bb8461031e565b610303565b905080838252602082019050602084028301858111156103e3576103e261034a565b5b835b8181101561040c57806103f88882610398565b8452602084019350506020810190506103e5565b5050509392505050565b600082601f83011261042b5761042a61028d565b5b813561043b8482602086016103ad565b91505092915050565b60006020828403121561045a57610459610283565b5b600082013567ffffffffffffffff81111561047857610477610288565b5b61048484828501610416565b91505092915050565b6104968161036f565b82525050565b60006020820190506104b1600083018461048d565b92915050565b6000819050919050565b7f4e487b7100000000000000000000000000000000000000000000000000000000600052601260045260246000fd5b60006104fb826104b7565b9150610506836104b7565b925082610516576105156104c1565b5b828204905092915050565b600061052c826104b7565b9150610537836104b7565b925082610547576105466104c1565b5b828206905092915050565b7f4e487b7100000000000000000000000000000000000000000000000000000000600052603260045260246000fd5b600081905092915050565b50565b600061059c600083610581565b91506105a78261058c565b600082019050919050565b60006105bd8261058f565b9150819050919050565b600082825260208201905092915050565b7f4d756c746943616c6c416464726573733a205472616e73666572206661696c6560008201527f6400000000000000000000000000000000000000000000000000000000000000602082015250565b60006106346021836105c7565b915061063f826105d8565b604082019050919050565b6000602082019050818103600083015261066381610627565b9050919050565b7f4d756c746943616c6c416464726573733a2041646d696e20726566756e64206660008201527f61696c6564000000000000000000000000000000000000000000000000000000602082015250565b60006106c66025836105c7565b91506106d18261066a565b604082019050919050565b600060208201905081810360008301526106f5816106b9565b905091905056fea2646970667358221220574e9353e2a3f0542e3e52ed4e144b2d736b0cc3dc7dbe96d5a3101b7076c37364736f6c634300081c0033",
  "linkReferences": {},
  "deployedLinkReferences": {}
}